{
  "address": "0xe7f1725E7734CE288F8367e1Bb143E90bb3F0512",
  "abi": [
    {
      "inputs": [
        {
          "internalType": "address",
          "name": "priceFeedAddress",
          "type": "address"
        }
      ],
      "stateMutability": "nonpayable",
      "type": "constructor"
    },
    {
      "inputs": [],
      "name": "NotOwner",
      "type": "error"
    },
    {
      "stateMutability": "payable",
      "type": "fallback"
    },
    {
      "inputs": [],
      "name": "MINIMUM_USD",
      "outputs": [
        {
          "internalType": "uint256",
          "name": "",
          "type": "uint256"
        }
      ],
      "stateMutability": "view",
      "type": "function"
    },
    {
      "inputs": [
        {
          "internalType": "address",
          "name": "",
          "type": "address"
        }
      ],
      "name": "addressToAmountFunded",
      "outputs": [
        {
          "internalType": "uint256",
          "name": "",
          "type": "uint256"
        }
      ],
      "stateMutability": "view",
      "type": "function"
    },
    {
      "inputs": [],
      "name": "fund",
      "outputs": [],
      "stateMutability": "payable",
      "type": "function"
    },
    {
      "inputs": [
        {
          "internalType": "uint256",
          "name": "",
          "type": "uint256"
        }
      ],
      "name": "funders",
      "outputs": [
        {
          "internalType": "address",
          "name": "",
          "type": "address"
        }
      ],
      "stateMutability": "view",
      "type": "function"
    },
    {
      "inputs": [],
      "name": "getVersion",
      "outputs": [
        {
          "internalType": "uint256",
          "name": "",
          "type": "uint256"
        }
      ],
      "stateMutability": "view",
      "type": "function"
    },
    {
      "inputs": [],
      "name": "i_owner",
      "outputs": [
        {
          "internalType": "address",
          "name": "",
          "type": "address"
        }
      ],
      "stateMutability": "view",
      "type": "function"
    },
    {
      "inputs": [],
      "name": "priceFeed",
      "outputs": [
        {
          "internalType": "contract AggregatorV3Interface",
          "name": "",
          "type": "address"
        }
      ],
      "stateMutability": "view",
      "type": "function"
    },
    {
      "inputs": [],
      "name": "withdraw",
      "outputs": [],
      "stateMutability": "nonpayable",
      "type": "function"
    },
    {
      "stateMutability": "payable",
      "type": "receive"
    }
  ],
  "transactionHash": "0x477bc818683294c07aaea16d1bae8f1d7e48151d6b0e1d2fe9e14643a2fee7c8",
  "args": [
    "0x5FbDB2315678afecb367f032d93F642f64180aa3"
  ],
  "numDeployments": 1,
  "solcInputHash": "87ad516afdad00eb56f1efff6341fafc",
  "bytecode": "0x608060405234801561001057600080fd5b5060405162000fe038038062000fe08339818101604052810190610034919061011f565b33600260006101000a81548173ffffffffffffffffffffffffffffffffffffffff021916908373ffffffffffffffffffffffffffffffffffffffff16021790555080600360006101000a81548173ffffffffffffffffffffffffffffffffffffffff021916908373ffffffffffffffffffffffffffffffffffffffff1602179055505061014c565b600080fd5b600073ffffffffffffffffffffffffffffffffffffffff82169050919050565b60006100ec826100c1565b9050919050565b6100fc816100e1565b811461010757600080fd5b50565b600081519050610119816100f3565b92915050565b600060208284031215610135576101346100bc565b5b60006101438482850161010a565b91505092915050565b610e84806200015c6000396000f3fe60806040526004361061007f5760003560e01c8063741bef1a1161004e578063741bef1a14610142578063b60d42881461016d578063dba6335f14610177578063dc0d3dff146101a25761008e565b80630d8e6e2c146100985780633ccfd60b146100c35780633e47d6f3146100da5780636b69a592146101175761008e565b3661008e5761008c6101df565b005b6100966101df565b005b3480156100a457600080fd5b506100ad610319565b6040516100ba919061081f565b60405180910390f35b3480156100cf57600080fd5b506100d86103b1565b005b3480156100e657600080fd5b5061010160048036038101906100fc919061089d565b6105f3565b60405161010e919061081f565b60405180910390f35b34801561012357600080fd5b5061012c61060b565b604051610139919061081f565b60405180910390f35b34801561014e57600080fd5b50610157610618565b6040516101649190610929565b60405180910390f35b6101756101df565b005b34801561018357600080fd5b5061018c61063e565b6040516101999190610953565b60405180910390f35b3480156101ae57600080fd5b506101c960048036038101906101c4919061099a565b610664565b6040516101d69190610953565b60405180910390f35b6802b5e3af16b188000061021e600360009054906101000a900473ffffffffffffffffffffffffffffffffffffffff16346106a390919063ffffffff16565b101561025f576040517f08c379a000000000000000000000000000000000000000000000000000000000815260040161025690610a24565b60405180910390fd5b346000803373ffffffffffffffffffffffffffffffffffffffff1673ffffffffffffffffffffffffffffffffffffffff16815260200190815260200160002060008282546102ad9190610a73565b925050819055506001339080600181540180825580915050600190039060005260206000200160009091909190916101000a81548173ffffffffffffffffffffffffffffffffffffffff021916908373ffffffffffffffffffffffffffffffffffffffff160217905550565b6000600360009054906101000a900473ffffffffffffffffffffffffffffffffffffffff1673ffffffffffffffffffffffffffffffffffffffff166354fd4d506040518163ffffffff1660e01b8152600401602060405180830381865afa158015610388573d6000803e3d6000fd5b505050506040513d601f19601f820116820180604052508101906103ac9190610abc565b905090565b600260009054906101000a900473ffffffffffffffffffffffffffffffffffffffff1673ffffffffffffffffffffffffffffffffffffffff163373ffffffffffffffffffffffffffffffffffffffff1614610438576040517f30cd747100000000000000000000000000000000000000000000000000000000815260040160405180910390fd5b60005b6001805490508110156104e35760006001828154811061045e5761045d610ae9565b5b9060005260206000200160009054906101000a900473ffffffffffffffffffffffffffffffffffffffff16905060008060008373ffffffffffffffffffffffffffffffffffffffff1673ffffffffffffffffffffffffffffffffffffffff168152602001908152602001600020819055505080806104db90610b18565b91505061043b565b50600067ffffffffffffffff8111156104ff576104fe610b60565b5b60405190808252806020026020018201604052801561052d5781602001602082028036833780820191505090505b506001908051906020019061054392919061075f565b5060003373ffffffffffffffffffffffffffffffffffffffff164760405161056a90610bc0565b60006040518083038185875af1925050503d80600081146105a7576040519150601f19603f3d011682016040523d82523d6000602084013e6105ac565b606091505b50509050806105f0576040517f08c379a00000000000000000000000000000000000000000000000000000000081526004016105e790610c21565b60405180910390fd5b50565b60006020528060005260406000206000915090505481565b6802b5e3af16b188000081565b600360009054906101000a900473ffffffffffffffffffffffffffffffffffffffff1681565b600260009054906101000a900473ffffffffffffffffffffffffffffffffffffffff1681565b6001818154811061067457600080fd5b906000526020600020016000915054906101000a900473ffffffffffffffffffffffffffffffffffffffff1681565b6000808273ffffffffffffffffffffffffffffffffffffffff1663feaf968c6040518163ffffffff1660e01b815260040160a060405180830381865afa1580156106f1573d6000803e3d6000fd5b505050506040513d601f19601f820116820180604052508101906107159190610cb9565b50505091505060006402540be4008261072e9190610d34565b90506000670de0b6b3a764000086836107479190610dac565b6107519190610e1d565b905080935050505092915050565b8280548282559060005260206000209081019282156107d8579160200282015b828111156107d75782518260006101000a81548173ffffffffffffffffffffffffffffffffffffffff021916908373ffffffffffffffffffffffffffffffffffffffff1602179055509160200191906001019061077f565b5b5090506107e591906107e9565b5090565b5b808211156108025760008160009055506001016107ea565b5090565b6000819050919050565b61081981610806565b82525050565b60006020820190506108346000830184610810565b92915050565b600080fd5b600073ffffffffffffffffffffffffffffffffffffffff82169050919050565b600061086a8261083f565b9050919050565b61087a8161085f565b811461088557600080fd5b50565b60008135905061089781610871565b92915050565b6000602082840312156108b3576108b261083a565b5b60006108c184828501610888565b91505092915050565b6000819050919050565b60006108ef6108ea6108e58461083f565b6108ca565b61083f565b9050919050565b6000610901826108d4565b9050919050565b6000610913826108f6565b9050919050565b61092381610908565b82525050565b600060208201905061093e600083018461091a565b92915050565b61094d8161085f565b82525050565b60006020820190506109686000830184610944565b92915050565b61097781610806565b811461098257600080fd5b50565b6000813590506109948161096e565b92915050565b6000602082840312156109b0576109af61083a565b5b60006109be84828501610985565b91505092915050565b600082825260208201905092915050565b7f596f75206e65656420746f207370656e64206d6f726520455448210000000000600082015250565b6000610a0e601b836109c7565b9150610a19826109d8565b602082019050919050565b60006020820190508181036000830152610a3d81610a01565b9050919050565b7f4e487b7100000000000000000000000000000000000000000000000000000000600052601160045260246000fd5b6000610a7e82610806565b9150610a8983610806565b9250828201905080821115610aa157610aa0610a44565b5b92915050565b600081519050610ab68161096e565b92915050565b600060208284031215610ad257610ad161083a565b5b6000610ae084828501610aa7565b91505092915050565b7f4e487b7100000000000000000000000000000000000000000000000000000000600052603260045260246000fd5b6000610b2382610806565b91507fffffffffffffffffffffffffffffffffffffffffffffffffffffffffffffffff8203610b5557610b54610a44565b5b600182019050919050565b7f4e487b7100000000000000000000000000000000000000000000000000000000600052604160045260246000fd5b600081905092915050565b50565b6000610baa600083610b8f565b9150610bb582610b9a565b600082019050919050565b6000610bcb82610b9d565b9150819050919050565b7f43616c6c206661696c6564000000000000000000000000000000000000000000600082015250565b6000610c0b600b836109c7565b9150610c1682610bd5565b602082019050919050565b60006020820190508181036000830152610c3a81610bfe565b9050919050565b600069ffffffffffffffffffff82169050919050565b610c6081610c41565b8114610c6b57600080fd5b50565b600081519050610c7d81610c57565b92915050565b6000819050919050565b610c9681610c83565b8114610ca157600080fd5b50565b600081519050610cb381610c8d565b92915050565b600080600080600060a08688031215610cd557610cd461083a565b5b6000610ce388828901610c6e565b9550506020610cf488828901610ca4565b9450506040610d0588828901610aa7565b9350506060610d1688828901610aa7565b9250506080610d2788828901610c6e565b9150509295509295909350565b6000610d3f82610c83565b9150610d4a83610c83565b9250828202610d5881610c83565b91507f80000000000000000000000000000000000000000000000000000000000000008414600084121615610d9057610d8f610a44565b5b8282058414831517610da557610da4610a44565b5b5092915050565b6000610db782610806565b9150610dc283610806565b9250828202610dd081610806565b91508282048414831517610de757610de6610a44565b5b5092915050565b7f4e487b7100000000000000000000000000000000000000000000000000000000600052601260045260246000fd5b6000610e2882610806565b9150610e3383610806565b925082610e4357610e42610dee565b5b82820490509291505056fea2646970667358221220b43cbf15c394be4317b512ec0ef886b68b0b30795256001b120c24d8157202e964736f6c63430008130033",
  "devdoc": {
    "kind": "dev",
    "methods": {},
    "version": 1
  },
  "userdoc": {
    "kind": "user",
    "methods": {},
    "version": 1
  },
  "storageLayout": {
    "storage": [
      {
        "astId": 58,
        "contract": "contracts/FundMe.sol:FundMe",
        "label": "addressToAmountFunded",
        "offset": 0,
        "slot": "0",
        "type": "t_mapping(t_address,t_uint256)"
      },
      {
        "astId": 61,
        "contract": "contracts/FundMe.sol:FundMe",
        "label": "funders",
        "offset": 0,
        "slot": "1",
        "type": "t_array(t_address)dyn_storage"
      },
      {
        "astId": 63,
        "contract": "contracts/FundMe.sol:FundMe",
        "label": "i_owner",
        "offset": 0,
        "slot": "2",
        "type": "t_address"
      },
      {
        "astId": 73,
        "contract": "contracts/FundMe.sol:FundMe",
        "label": "priceFeed",
        "offset": 0,
        "slot": "3",
        "type": "t_contract(AggregatorV3Interface)45"
      }
    ],
    "types": {
      "t_address": {
        "encoding": "inplace",
        "label": "address",
        "numberOfBytes": "20"
      },
      "t_array(t_address)dyn_storage": {
        "base": "t_address",
        "encoding": "dynamic_array",
        "label": "address[]",
        "numberOfBytes": "32"
      },
      "t_contract(AggregatorV3Interface)45": {
        "encoding": "inplace",
        "label": "contract AggregatorV3Interface",
        "numberOfBytes": "20"
      },
      "t_mapping(t_address,t_uint256)": {
        "encoding": "mapping",
        "key": "t_address",
        "label": "mapping(address => uint256)",
        "numberOfBytes": "32",
        "value": "t_uint256"
      },
      "t_uint256": {
        "encoding": "inplace",
        "label": "uint256",
        "numberOfBytes": "32"
      }
    }
  }
}